:020000040800F2
:1000000000800120B90C0008FD0C0008FD0C000860
:10001000FD0C0008FD0C0008FD0C000800000000AD
:10002000000000000000000000000000FD0C0008BF
:10003000FD0C000800000000FD0C0008FD0C00088D
:10004000FD0C0008FD0C0008FD0C0008FD0C00086C
:10005000FD0C0008FD0C0008FD0C0008FD0C00085C
:10006000FD0C0008FD0C000875040008FD0C0008DC
:10007000FD0C0008FD0C0008FD0C0008FD0C00083C
:10008000FD0C0008FD0C0008FD0C0008000000003D
:10009000000000000000000000000000FD0C00084F
:1000A000FD0C0008FD0C0008FD0C0008FD0C00080C
:1000B000FD0C0008FD0C0008FD0C0008FD0C0008FC
:1000C000FD0C0008FD0C0008FD0C0008FD0C0008EC
:1000D000FD0C0008FD0C0008FD0C000800000000ED
:1000E0009D040008FD0C0008FD0C00080000000045
:1000F000000000000000000000000000FD0C0008EF
:1001000000000000FD0C0008FD0C0008FD0C0008BC
:1001100000000000000000000000000000000000DF
:10012000FD0C0008FD0C0008FD0C0008FD0C00088B
:10013000FD0C0008000000000000000000000000AE
:10014000000000000000000000000000FD0C00089E
:10015000FD0C0008FD0C0008FD0C0008FD0C00085B
:10016000FD0C0008FD0C000800000000000000006D
:10017000000000000000000000000000000000007F
:1001800000000000FD0C000800000000000000005E
:04019000FD0C00085A
:1001A000034613F8012B002AFBD1181A01387047B7
:1001B00001F0FF01102A2BDB10F0070F08D010F818
:1001C000013B013A8B422DD010F0070F42B3F6D11C
:1001D000F0B441EA012141EA014122F007047FF035
:1001E00000070023F0E80256083C85EA010586EA8C
:1001F000010685FA47F5A3FA87F586FA47F6A5FAC8
:1002000087F68EB9EED1F0BC01F0FF0102F00702D3
:1002100032B110F8013B013A83EA010313B1F8D17E
:100220000020704701387047002D06BF354603385F
:10023000073815F0010F07D1013015F4807F02BF98
:10024000013015F4C03F0130F0BC0138704700BFE9
:100250000348044B834202D0034B03B11847704755
:100260005400002054000020000000000548064B08
:100270001B1AD90F01EBA301491002D0034B03B1A4
:100280001847704754000020540000200000000070
:1002900010B5064C237843B9FFF7DAFF044B13B1CE
:1002A0000448AFF300800123237010BD54000020E8
:1002B000000000006416000808B5054B1BB1054995
:1002C0000548AFF30080BDE80840FFF7CFBF00BF8F
:1002D00000000000580000206416000880B584B0BB
:1002E00000AF0346FB710B46BB7113467B71B979B6
:1002F000F8790123002200F0E5F86E2000F010FCF0
:10030000BB799B08FB73BB7903F00303DBB29B0053
:10031000BB732F4AFB7B023352F82320BB7B0F2198
:1003200001FA03F3DB4318462949FB7B0240023301
:1003300041F82320264AFB7B023352F82320F97927
:10034000BB7B01FA03F318462149FB7B02430233CE
:1003500041F823207B79002B02D07B79022B0AD134
:100360001C4B9B68BA79012101FA02F21146194A25
:100370000B4393600AE0174B9B68BA79012101FA9D
:1003800002F2D2431146134A0B4093607B79012B52
:1003900002D07B79022B0AD10E4BDB68BA7901219E
:1003A00001FA02F211460B4A0B43D3600BE0094BF2
:1003B000DB68BA79012101FA02F2D2431146054AFB
:1003C0000B40D36000BF00BF1037BD4680BD00BFEB
:1003D00000380140003C014090B585B000AF0346B5
:1003E000FB71134B1B68FA79012101FA02F21146E5
:1003F0000F4A0B431360FB79184600F01DF80346C3
:10040000FB730C4AFB7B5B09D8B2034652F82330DE
:10041000FA7B02F01F02012101FA02F21446054A9A
:100420000146234342F8213000BF1437BD4690BD3A
:10043000003C014000E100E080B485B000AF03461D
:10044000FB71FB79042B03D8FB790633FB730AE0BD
:10045000FB79092B02D81723FB7304E0FB790F2BE0
:1004600001D82823FB73FB7B18461437BD4680BC9C
:100470007047000080B500AF074B5B6903F01003C5
:10048000002B07D0044B5B69034A43F01003536110
:1004900000F0DAFB00BF80BD003C014080B500AF3A
:1004A000074B5B6903F48063002B07D0044B5B6947
:1004B000034A43F48063536100F0E8FB00BF80BD52
:1004C000003C014090B482B000AF0446084611469B
:1004D0001A462346FB710346BB710B467B711346DC
:1004E0003B71FB79413B042B00F2078101A252F8DA
:1004F00023F000BF09050008AF050008FB0600084F
:10050000FB060008550600087F4B1B68BA795200AD
:10051000032101FA02F2D24311467B4A0B401360D9
:10052000794B1B687979BA79520001FA02F21146C7
:10053000754A0B431360754B1B68BA79012101FAA8
:1005400002F2D2431146714A0B4013607B79012BB2
:1005500015D16E4B1B68BA79012101FA02F2D24320
:1005600011466A4A0B401360684B1B683979BA79A7
:1005700001FA02F21146654A0B431360BEE0644B78
:100580001B68BA795200032101FA02F2D2431146E4
:100590005F4A0B4013605E4B1B683979BA79520091
:1005A00001FA02F211465A4A0B431360A6E0594B76
:1005B0001B68BA795200032101FA02F2D2431146B4
:1005C000544A0B401360534B1B687979BA79520037
:1005D00001FA02F211464F4A0B4313604E4B1B685F
:1005E000BA79012101FA02F2D24311464A4A0B407C
:1005F00013607B79012B15D1474B1B68BA79012118
:1006000001FA02F2D2431146434A0B401360424BB7
:100610001B683979BA7901FA02F211463E4A0B4356
:1006200013606BE03D4B1B68BA795200032101FA5D
:1006300002F2D2431146394A0B401360374B1B6814
:100640003979BA79520001FA02F21146334A0B4362
:10065000136053E0324B1B68BA795200032101FA50
:1006600002F2D24311462E4A0B4013602C4B1B68FA
:100670007979BA79520001FA02F21146284A0B43FD
:100680001360284B1B68BA79012101FA02F2D243A8
:100690001146244A0B4013607B79012B15D1214B65
:1006A0001B68BA79012101FA02F2D24311461D4AB0
:1006B0000B4013601B4B1B683979BA7901FA02F2BF
:1006C0001146184A0B43136018E0174B1B68BA79A0
:1006D0005200032101FA02F2D2431146124A0B40A2
:1006E0001360114B1B683979BA79520001FA02F292
:1006F00011460D4A0B43136000E000BF00BF0837EE
:10070000BD4690BC704700BF00000240040002409C
:100710000C00024000040240040402400C040240A9
:1007200000100240041002400C10024080B483B05C
:1007300000AF0346FB710B46BB7113467B71FB791F
:10074000413B042B4ED801A252F823F06107000868
:100750008D070008E5070008E5070008B90700084D
:10076000234B1B68BA79012101FA02F2D2431146E8
:100770001F4A0B4013601E4B1B687979BA7901FA46
:1007800002F211461A4A0B4313602CE0194B1B6806
:10079000BA79012101FA02F2D2431146154A0B40FF
:1007A0001360144B1B687979BA7901FA02F2114689
:1007B000104A0B43136016E00F4B1B68BA790121F6
:1007C00001FA02F2D24311460B4A0B4013600A4B66
:1007D0001B687979BA7901FA02F21146064A0B438D
:1007E000136000E000BF00BF0C37BD4680BC7047FF
:1007F00014000240140402401410024080B485B07A
:1008000000AF03460A46FB711346BB710023FB731E
:10081000FB79413B042B2BD801A252F823F000BFF7
:100820003508000849080008710800087108000828
:100830005D080008124B1A68BB7922FA03F3DBB299
:1008400003F00103FB7314E00E4B1A68BB7922FA24
:1008500003F3DBB203F00103FB730AE00A4B1A68EF
:10086000BB7922FA03F3DBB203F00103FB7300E070
:1008700000BFFB7B18461437BD4680BC704700BFE5
:1008800010000240100402401010024080B500AF7A
:10089000012000F045F90223002200214220FFF749
:1008A00011FE00BF80BD000080B500AF00214220D6
:1008B000FFF7A4FF03461A46124B1A70124B1B781F
:1008C000012B19D10F4B1B78002B15D10F4B1B8817
:1008D00040F2E63293420FD80C4B1B8801339AB298
:1008E0000A4B1A80094B1B880949184600F0F8F892
:1008F0000749C42000F098F8024B1A78024B1A708E
:1009000000BF80BD0000002001000020700000201A
:100910007400002080B582B000AF042000F000F920
:100920000023FB7108E0F979002301224520FFF73D
:10093000C9FDFB790133FB71FB79092BF3D9002148
:10094000382000F025F800210C2000F021F80021CB
:10095000062000F01DF80021012000F019F8022007
:1009600000F0A6F80021802000F012F8064800F000
:1009700041F80021C02000F00BF8044800F03AF8DC
:1009800000BF0837BD4680BD7C16000890160008E1
:1009900080B584B000AF03460A46FB711346BB71B5
:1009A000BB791A4609214520FFF7C0FE0023FB73DF
:1009B0000FE0FA79FB7B42FA03F3DBB203F00103A9
:1009C000DAB2FB7B19464520FFF7B0FEFB7B013313
:1009D000FB73FB7B072BECD9012208214520FFF795
:1009E000A5FE002208214520FFF7A0FE00BF10371A
:1009F000BD4680BD80B582B000AF78600AE07B68FC
:100A000093F90030DBB201211846FFF7C1FF7B6884
:100A100001337B607B6893F90030002BEFD100BF7E
:100A200000BF0837BD4680BD80B584B000AF034627
:100A30003960FB71FB79CC2B19D0CC2B32DCC42B69
:100A400010D0C42B2EDC842B02D08C2B05D029E0B7
:100A500000218420FFF79CFF0EE000218C20FFF78F
:100A600097FF09E00021C420FFF792FF04E0002176
:100A7000CC20FFF78DFF00BF3868FFF7BBFF0023D6
:100A8000FB6005E00948FFF7B5FFFB680133FB6039
:100A90003868FFF785FB0346C3F10302FB689A42FF
:100AA000F0D800E000BF1037BD4680BDA01600089A
:100AB00080B485B000AF78600023FB6002E0FB6883
:100AC0000133FB607B684FF4966202FB03F3FA6824
:100AD0009A42F4DB00BF00BF1437BD4680BC7047AC
:100AE00080B582B000AF03463960FB80FB88044AC2
:100AF0000421386800F004F900BF0837BD4680BD06
:100B0000A416000880B400AF044B1B68034A43F0EE
:100B10000103136000BFBD4680BC7047003802402F
:100B200080B485B000AF0346FB71FB795B09FB73B2
:100B3000FB7903F01F03BB73FB7B032B36D801A2A9
:100B400052F823F0550B00086B0B0008810B0008CE
:100B5000970B0008184B1B68BA7B012101FA02F2BF
:100B60001146154A0B43136021E0144B1B68BA7BF6
:100B7000012101FA02F21146104A0B43136016E0FC
:100B80000F4B1B68BA7B012101FA02F211460C4A95
:100B90000B4313600BE00B4B1B68BA7B012101FA7E
:100BA00002F21146074A0B43136000E000BF00BF8A
:100BB0001437BD4680BC704730380240343802409C
:100BC000403802404438024080B400AFBFF34F8F3A
:100BD00000BF064BDB6803F4E0620449044B134397
:100BE000CB60BFF34F8F00BF00BFFDE700ED00E01B
:100BF0000400FA0580B500AFFFF784FFFFF78AFE17
:100C0000FFF744FE0020FFF78BFF0120FFF788FF6E
:100C10006E20FFF785FF012204210020FFF75EFB15
:100C200001220A210120FFF759FB0420FFF7D4FB22
:100C30000A20FFF7D1FB034B1B78002BFBD1FFF7FA
:100C400033FEF8E77800002080B500AF0C4B01229E
:100C50001A7000210120FFF79BFE0220FFF728FFFA
:100C600000218020FFF794FE0648FFF7C3FE002115
:100C7000C020FFF78DFE0448FFF7BCFE00BF80BD1B
:100C800078000020A8160008B816000880B500AF4C
:100C9000FFF79AFF00BF80BD80B582B000AF7860DB
:100CA00000F064F803460C221A604FF0FF33184638
:100CB0000837BD4680BD000000200B490B4A0C4B95
:100CC00002E01C580C5004300C189442F9D3002058
:100CD0000849094A01E0086004319142FBD300F061
:100CE0004BF8FFF787FF00000000002054000020B1
:100CF0000C17000854000020C4010020FEE700008B
:100D00000CB430B5184B0C1E1D689DB008DA8B234F
:100D10002B604FF0FF301DB0BDE8304002B070478F
:100D20004FF40273ADF814304FF000031B9314BF5F
:100D300004F1FF332346049307934FF6FF730290A9
:100D40000690ADF81630209A21AB02A928460193EF
:100D500000F090F9431CBCBF8B232B60002CDAD031
:100D6000029B00221A70D6E704000020014B18688D
:100D7000704700BF0400002070B50D4B0D4D5B1B8C
:100D80009C100026A64209D100F06CFC0A4D0B4BCA
:100D90005B1B9C100026A64205D170BD55F8043B94
:100DA00098470136EEE755F8043B98470136F2E7DD
:100DB00004170008041700080417000808170008A3
:100DC0007047704738B50546002941D051F8043CBA
:100DD0000C1F002BB8BFE41800F0E0F81D4A1368A0
:100DE00033B9636014602846BDE8384000F0DCB8D1
:100DF000A34208D9206821188B4201BF19685B689B
:100E000009182160EDE71A465B680BB1A342FAD9D5
:100E100011685018A0420BD1206801445018834239
:100E20001160E0D118685B68536008441060DAE72D
:100E300002D90C232B60D6E7206821188B4204BF0F
:100E400019685B68636004BF091821605460CAE7D1
:100E500038BD00BFC001002070B50F4E0C46316890
:100E6000054611B900F0AAFB30602146284600F083
:100E7000A5FB431C03D14FF0FF34204670BDC41CBA
:100E800024F00304A042F8D0211A284600F096FB73
:100E90000130F2D1EFE700BFBC0100202DE9F8439B
:100EA000CD1C25F0030508350C2D38BF0C25002D71
:100EB000064601DBA94204D90C2333600020BDE8BB
:100EC000F883DFF8D48000F069F8D8F800301C46C9
:100ED00044BB29463046FFF7BFFF431C044658D1A8
:100EE000D8F800402746002F43D1002C4BD0236870
:100EF0003946304604EB030900F060FB814542D1DE
:100F000021686D1A29463046FFF7A6FF01303AD016
:100F100023682B442360D8F800305A6862BBC8F8B5
:100F200000700FE02268521B20D40B2A17D96119D8
:100F3000A342256018BF5960636808BFC8F8001055
:100F400062514B60304600F02FF804F10B00231D76
:100F500020F00700C21A1CBF1B1AA350AFE762683B
:100F6000A3420CBFC8F800205A60EBE72346646830
:100F7000AEE73C467F68B6E71A465B68A342FBD102
:100F800000235360DEE70C233360304600F00CF89A
:100F900094E70560D6E700BFC00100200148FFF7D5
:100FA0000FBF00BFB80100200148FFF70ABF00BF14
:100FB000B80100202DE9F0478E681F46BE428246E8
:100FC0000C469046334653D8B1F90C0010F4906F9C
:100FD0002BD065692368096905EB4505A3EB010979
:100FE00005EBD5757B1C6D104B44AB422A4684BF84
:100FF0001D462A46430527D511465046FFF74EFFAA
:10100000064658B321694A4600F0E8FAA38923F45A
:10101000906343F08003A381266165614E44A5EB94
:1010200009052660A5603E463B461F4620683A46B5
:10103000414600F0A9FAA3689B1BA36023683B44C8
:1010400023600020BDE8F087504600F0D5FA064640
:101050000028E1D121695046FFF7B4FE0C23CAF8FD
:101060000030A38943F04003A3814FF0FF30E9E74C
:101070003E46DBE72DE9F04F98468B891B069DB075
:1010800007460D46144610D50B6973B94021FFF78A
:1010900005FF2860286130B90C233B604FF0FF301A
:1010A0001DB0BDE8F08F40236B610023099320231E
:1010B0008DF82930CDF80C803023DFF89C818DF835
:1010C0002A304FF0010923469A4613F8012B0AB142
:1010D000252AF9D1BAEB040B0BD05B4622462946F0
:1010E0003846FFF767FF013000F0A780099A5A449D
:1010F00009929AF80030002B00F09F8000234FF0F7
:10110000FF32CDE905230AF1010A049307938DF814
:1011100053301A935446052214F8011B4E48FFF72A
:1011200047F8049AD8B9D00644BF20238DF853302D
:10113000110744BF2B238DF853309AF800302A2B27
:1011400015D0079A544600204FF00A0C214611F89A
:10115000013B303B092B4BD9B0B1079214E0A0EB17
:10116000080309FA03F313430493A246D2E7039B4F
:10117000191D1B680391002BBBBF5B4242F00202AA
:1011800007930793B8BF049223782E2B0AD1637874
:101190002A2B32D1039B1A1D1B68039243EAE37387
:1011A00002340593DFF8B4A0217803225046FEF7FD
:1011B000FFFF38B1049BA0EB0A004022824013439A
:1011C0000134049314F8011B25488DF828100622D9
:1011D000FEF7EEFF002836D0224B1BBB039B0733E4
:1011E00023F0070308330393099B334409936AE709
:1011F0000CFB02320C460120A8E7002301340593C2
:1012000019464FF00A0C204610F8012B303A092AF3
:1012100003D9002BC6D00591C4E70CFB012104467D
:101220000123F0E703AB00932A460F4B04A938468D
:10123000AFF30080421C0646D6D1AB895B063FF572
:101240002DAF09982CE703AB00932A46064B04A95F
:10125000384600F079F8EDE7C7160008CD1600080B
:10126000D116000800000000B50F00082DE9F04776
:10127000164698468A680B69DDF820909342B8BFFD
:101280001346336091F8432007460C460AB10133F8
:1012900033602368990642BF3368023333602568A0
:1012A00015F0060506D104F1190AE36832689B1AA5
:1012B000AB4226DC94F843302268003B18BF012380
:1012C00092062BD404F1430241463846C847013008
:1012D0001ED02368226903F00603042B02BFE568D1
:1012E0003368ED1AA3680CBF25EAE5750025934223
:1012F000C4BF9B1AED1800261A34B5421AD100203B
:1013000008E00123524641463846C847013003D120
:101310004FF0FF30BDE8F0870135C6E7E1185A1CF1
:10132000302081F84300224494F8451082F843109D
:101330000233C7E70123224641463846C8470130F9
:10134000E6D00136D9E700002DE9FF470F7E0C9E5D
:10135000782F914680460C469A4601F1430207D801
:10136000622F0AD8002F00F0D280582F00F0B780EB
:1013700004F1420684F842703AE0A7F16303152BAA
:10138000F6D801A151F823F0E1130008F513000885
:10139000711300087113000871130008711300081D
:1013A000F513000871130008711300087113000889
:1013B00071130008F51400081F140008AB1400088E
:1013C0007113000871130008171500087113000845
:1013D0001F1400087113000871130008B3140008EB
:1013E00033681A1D1B68326004F1420684F84230EB
:1013F00001239DE033682068191D3160060601D580
:101400001D6803E04506FBD5B3F90050002D03DA53
:101410002D236D4284F8433059480A2310E0216897
:101420003368080653F8045B02D4490648BFADB2DE
:101430006F2F5348336059D10823002184F843109B
:101440006668A660002E05DB21682E4321F00401AA
:1014500021604DD01646B5FBF3F103FB1157C75D74
:1014600006F8017D2F46BB420D46F4D9082B0BD15F
:101470002368DF0708D5236961689942DEBF3023FE
:1014800006F8013C06F1FF36921B2261CDF800A060
:101490004B4603AA21464046FFF7E8FE01304CD1F7
:1014A0004FF0FF3004B0BDE8F087236843F020031D
:1014B00023603448782784F84570236831681F0614
:1014C00051F8045B02D45F0648BFADB23160D90762
:1014D00044BF43F0200323601DB11023ADE728482B
:1014E000E9E7236823F020032360F6E70A23A4E753
:1014F0001646BBE7336825686169181D30602E0603
:101500001B6801D5196002E06806FBD5198000232D
:1015100023611646BAE733681A1D32601E68626896
:1015200000213046FEF744FE08B1801B606063680E
:101530002361002384F84330A8E7236932464946F3
:101540004046D0470130ABD023689B0713D4E068F6
:10155000039B9842B8BF1846A4E701233246494688
:101560004046D04701309BD00135E36803995B1AB0
:10157000AB42F2DCEBE7002504F11906F5E700BF0A
:10158000D8160008E9160008884210B501EB0204DD
:1015900002D98442234607D8431EA14207D011F83E
:1015A000012B03F8012FF8E70244824200D110BD5D
:1015B00013F8011D02F8011DF7E7000038B5064DCC
:1015C0000023044608462B60FFF766FB431C02D14C
:1015D0002B6803B1236038BDB40100200A44914256
:1015E00000F1FF3300D1704710B511F8014B03F83B
:1015F000014F9142F9D110BD2DE9F0410746144643
:101600000D4621B9BDE8F0411146FFF747BC2AB9A4
:10161000FFF7D8FB25462846BDE8F08100F01AF810
:101620008442064602D8B4EB500FF4D8214638461F
:10163000FFF734FC804608B94546ECE7B442224641
:10164000294628BF3246FFF7C9FF29463846FFF72B
:10165000B9FBF1E751F8043C181F002BBCBF0B5835
:10166000C0187047F8B500BFF8BC08BC9E4670476C
:0C167000F8B500BFF8BC08BC9E467047EF
:10167C0043533A20302020204D533A20302020254F
:10168C00000000004F433A203020202045533A20E0
:10169C00302020002000000025750000454D4552EB
:1016AC0047454E43592053544F50000050726573B8
:1016BC007320746F20726573657400232D302B209A
:1016CC0000686C4C00656667454647003031323324
:1016DC00343536373839414243444546003031328F
:1016EC00333435363738396162636465660000001F
:0816FC00A4EAFF7F01000000D9
:04170400B90200081E
:041708009102000842
:10170C000101000008000020000000007C00002007
:10171C00E40000204C01002000000000000000004C
:10172C0000000000000000000000000000000000AD
:10173C00000000000000000000000000000000009D
:10174C00000000000000000000000000000000008D
:04175C000000000089
:0400000508000CB92A
:00000001FF
