:020000040800F2
:100000000080012055100008991000089910000880
:1000100099100008991000089910000800000000CD
:10002000000000000000000000000000991000081F
:1000300099100008000000009910000899100008AD
:1000400099100008991000089910000899100008EC
:1000500099100008991000089910000899100008DC
:1000600099100008991000085D0500089910000813
:1000700099100008991000089910000899100008BC
:10008000991000089910000899100008000000005D
:1000900000000000000000000000000099100008AF
:1000A000991000089910000899100008991000088C
:1000B000991000089910000899100008991000087C
:1000C000991000089910000899100008991000086C
:1000D000991000089910000899100008000000000D
:1000E000850500089910000899100008000000001C
:1000F000000000000000000000000000991000084F
:1001000000000000991000089910000899100008DC
:1001100000000000000000000000000000000000DF
:10012000991000089910000899100008991000080B
:10013000991000080000000000000000000000000E
:1001400000000000000000000000000099100008FE
:1001500099100008991000089910000899100008DB
:10016000991000089910000800000000000000002D
:10017000000000000000000000000000000000007F
:1001800000000000991000080000000000000000BE
:0401900099100008BA
:1001A000034613F8012B002AFBD1181A01387047B7
:1001B00001F0FF01102A2BDB10F0070F08D010F818
:1001C000013B013A8B422DD010F0070F42B3F6D11C
:1001D000F0B441EA012141EA014122F007047FF035
:1001E00000070023F0E80256083C85EA010586EA8C
:1001F000010685FA47F5A3FA87F586FA47F6A5FAC8
:1002000087F68EB9EED1F0BC01F0FF0102F00702D3
:1002100032B110F8013B013A83EA010313B1F8D17E
:100220000020704701387047002D06BF354603385F
:10023000073815F0010F07D1013015F4807F02BF98
:10024000013015F4C03F0130F0BC0138704700BFE9
:100250000348044B834202D0034B03B11847704755
:100260005400002054000020000000000548064B08
:100270001B1AD90F01EBA301491002D0034B03B1A4
:100280001847704754000020540000200000000070
:1002900010B5064C237843B9FFF7DAFF044B13B1CE
:1002A0000448AFF300800123237010BD54000020E8
:1002B00000000000001A000808B5054B1BB10549F5
:1002C0000548AFF30080BDE80840FFF7CFBF00BF8F
:1002D0000000000058000020001A000880B500AFA0
:1002E00000F03AFC002000F045FC682000F042FCE1
:1002F0000023032200211E4800F058F91D4B5B68C3
:100300001C4A23F4403353601A4B5B68194A43F488
:1003100040335360184B1B69174A23F007031361DE
:10032000154B1B69144A43F005031361124B5B68BC
:10033000114A23F0407353600F4B0F4A5B685360C0
:100340000D4B9B680C4A23F4006393600A4B0A4AE6
:100350009B689360084B9B68074A23F002039360F5
:10036000054B9B68044A43F00103936000BF80BDC6
:1003700000000240002301400020014080B400AF93
:100380000F4B5B6B0E4A23F01F0353630C4BDB6A6E
:100390000B4A23F47003D362094B9B68084A43F06D
:1003A0008043936000BF064B1B6803F00203002BE1
:1003B000F9D0034BDB6C9BB21846BD4680BC70473E
:1003C0000020014080B584B000AF0346FB710B46AE
:1003D000BB7113467B71F879B9790123002200F0D3
:1003E000E5F86E2000F0C6FBBB799B08FB73BB7978
:1003F00003F00303DBB29B00BB732F4AFB7B02338A
:1004000052F82320BB7B0F2101FA03F3DB4318468C
:100410002949FB7B0240023341F82320264AFB7B1B
:10042000023352F82320F979BB7B01FA03F3184613
:100430002149FB7B0243023341F823207B79002BC7
:1004400002D07B79022B0AD11C4B9B68BA7901211F
:1004500001FA02F21146194A0B4393600AE0174B66
:100460009B68BA79012101FA02F2D2431146134A7C
:100470000B4093607B79012B02D07B79022B0AD150
:100480000E4BDB68BA79012101FA02F211460B4AE0
:100490000B43D3600BE0094BDB68BA79012101FA09
:1004A00002F2D2431146054A0B40D36000BF00BFA1
:1004B0001037BD4680BD00BF00380140003C014000
:1004C00090B585B000AF0346FB71134B1B68FA79FA
:1004D000012101FA02F211460F4A0B431360FB7926
:1004E000184600F01DF80346FB730C4AFB7B5B09C2
:1004F000D8B2034652F82330FA7B02F01F020121E2
:1005000001FA02F21446054A0146234342F821301B
:1005100000BF1437BD4690BD003C014000E100E043
:1005200080B485B000AF0346FB71FB79042B03D880
:10053000FB790633FB730AE0FB79092B02D81723FA
:10054000FB7304E0FB790F2B01D82823FB73FB7BA3
:1005500018461437BD4680BC7047000080B500AF18
:10056000074B5B6903F01003002B07D000F0F4FC8D
:10057000034B5B69024A43F01003536100BF80BD27
:10058000003C014080B500AF074B5B6903F480631A
:10059000002B07D000F004FD034B5B69024A43F4D3
:1005A0008063536100BF80BD003C014080B485B0D2
:1005B00000AF7860084611461A460346FB700B46AA
:1005C000BB7013467B707B68FB60FB780F2B44D8B5
:1005D000FB681B68FA785200032101FA02F2D24349
:1005E0001A40FB681A60FB681B68B978FA785200F9
:1005F00001FA02F21A43FB681A60BB78012B13D18F
:10060000FB685B68FA78012101FA02F2D2431A40D2
:10061000FB685A60FB685B687978FA7801FA02F245
:100620001A43FB685A6019E0BB78002B16D1FB68AF
:10063000DB68FA785200032101FA02F2D2431A4031
:10064000FB68DA60FB68DB687978FA78520001FAB7
:1006500002F21A43FB68DA6000E000BF1437BD46BF
:1006600080BC704780B485B000AF78600B46FB70EB
:100670001346BB707B68FB60FB780F2B01D900230E
:1006800024E0FB681A68FB785B0022FA03F3DBB214
:1006900003F00303FB72FB7A012B16D1FB685B6945
:1006A000FA78012101FA02F2D2431A40FB685A613A
:1006B000FB685B69BA7802F00101FA7801FA02F28C
:1006C0001A43FB685A61012300E0002318461437DF
:1006D000BD4680BC704780B485B000AF78600B46E3
:1006E000FB707B68FB60FB780F2B01D9002317E0C0
:1006F000FB681A68FB785B0022FA03F3DBB203F0B5
:100700000303FB72FB7A002B09D1FB681A69FB78A3
:1007100022FA03F3DBB203F00103DBB200E00023B3
:1007200018461437BD4680BC704780B485B000AF12
:1007300078600B46FB701346BB707B68FB60FB6800
:100740001B68FA785200032101FA02F2D2431A40E0
:10075000FB681A60FB681B68FA785200022101FAF4
:1007600002F21A43FB681A60FB78072B15D8FB6866
:100770001B6AFA7892000F2101FA02F2D2431A4062
:10078000FB681A62FB681B6AB978FA78920001FA72
:1007900002F21A43FB681A6216E0FB685B6AFA7899
:1007A000083A92000F2101FA02F2D2431A40FB6884
:1007B0005A62FB685B6AB978FA78083A920001FAE3
:1007C00002F21A43FB685A6200BF1437BD4680BC70
:1007D0007047000080B500AF012000F0CBF9022384
:1007E000002200210248FFF7E1FE00BF80BD00BFEC
:1007F0000004024080B500AF00211548FFF76BFFF1
:1008000003461A46134B1A70134B1B78012B19D150
:10081000104B1B78002B15D1104B1B8840F2E63291
:1008200093420FD80D4B1B8801339AB20B4B1A80A1
:100830000A4B1B880A49184600F0F6F8084984203C
:1008400000F09EF8034B1A78034B1A7000BF80BD6E
:100850000004024000000020010000207000002081
:100860007400002080B582B000AF042000F082F94F
:100870000023FB7108E0F979002301221648FFF7F5
:1008800095FEFB790133FB71FB79092BF3D900212C
:10089000382000F027F800210C2000F023F8002178
:1008A000062000F01FF80021012000F01BF80220B4
:1008B00000F0A2F80021802000F014F8074800F0B2
:1008C00045F80021C02000F00DF8054800F03EF882
:1008D00000BF0837BD4680BD00100240181A00084E
:1008E0002C1A000880B584B000AF03460A46FB719D
:1008F0001346BB71BB791A4609211348FFF7B2FEB4
:100900000023FB730FE0FA79FB7B42FA03F3DBB2BF
:1009100003F00103DAB2FB7B19460B48FFF7A2FE96
:10092000FB7B0133FB73FB7B072BECD901220821F6
:100930000548FFF797FE002208210348FFF792FEC3
:1009400000BF1037BD4680BD0010024080B582B0A8
:1009500000AF78600AE07B6893F90030DBB20121D8
:100960001846FFF7BFFF7B6801337B607B6893F914
:100970000030002BEFD100BF00BF0837BD4680BD5F
:1009800080B584B000AF03463960FB71FB79C42B9E
:1009900006D0C42B29DC842B0CD08C2B05D024E072
:1009A0000021C420FFF79EFF09E000218C20FFF703
:1009B00099FF04E000218420FFF794FF00BF38680E
:1009C000FFF7C4FF0023FB6005E00A48FFF7BEFF06
:1009D000FB680133FB603868FFF7E2FB0346C3F1B5
:1009E0000302FB689A42F0D800E000BF1037BD4612
:1009F00080BD00BF341A000880B485B000AF7860B5
:100A00000023FB6002E0FB680133FB607B684FF46E
:100A1000966202FB03F3FA689A42F4DB00BF00BF60
:100A20001437BD4680BC704780B582B000AF034626
:100A30003960FB80FB88044A0421386800F02EFBF3
:100A400000BF0837BD4680BD381A000880B582B0A7
:100A500000AF00F081F8412000F08CF8022000F097
:100A600089F8022206211F48FFF75FFE1E4B7B60BC
:100A70007B6853229A627B6840F2E732DA627B68D5
:100A80004FF4FA725A637B689B6923F070027B68AB
:100A90009A617B689B6943F060027B689A617B681E
:100AA0009B6943F008027B689A617B681B6A43F08C
:100AB00001027B681A627B681B6843F080027B68D6
:100AC0001A607B685B6943F001027B685A617B684E
:100AD0001B6843F001027B681A6000BF0837BD46FF
:100AE00080BD00BF000802400004004080B487B011
:100AF00000AF0346FB71FB79642B01D96423FB71C2
:100B00000B4B7B617B69DB6A3B613B690133FA79A3
:100B100002FB03F3074AA2FB03235B09FB607B692B
:100B2000FA685A6300BF1C37BD4680BC704700BFDF
:100B3000000400401F85EB5180B483B000AF054B2B
:100B40007B607B6800225A6300BF0C37BD4680BCC7
:100B5000704700BF0004004080B400AF044B1B6826
:100B6000034A43F00103136000BFBD4680BC7047D9
:100B70000038024080B485B000AF0346FB71FB79BA
:100B80005B09FB73FB7903F01F03BB73FB7B032B38
:100B900036D801A252F823F0A90B0008BF0B0008B9
:100BA000D50B0008EB0B0008184B1B68BA7B012122
:100BB00001FA02F21146154A0B43136021E0144B6F
:100BC0001B68BA7B012101FA02F21146104A0B435D
:100BD000136016E00F4B1B68BA7B012101FA02F289
:100BE00011460C4A0B4313600BE00B4B1B68BA7B9E
:100BF000012101FA02F21146074A0B43136000E09B
:100C000000BF00BF1437BD4680BC7047303802407B
:100C100034380240403802404438024080B586B043
:100C200000AFF8607B600B46FB721346BB72FB683B
:100C30007B61FB68B3F1804F03D14020FFF79AFF3F
:100C400016E0FB684A4A934203D14120FFF792FF26
:100C50000EE0FB68474A934203D14220FFF78AFF28
:100C600006E0FB68444A93427CD14320FFF782FFB1
:100C7000FB7A002B78D0FB7A042B75D87B685A1E40
:100C80007B699A627B694FF6FF72DA62BB7A012B4D
:100C900061D1FB7A012B02D0FB7A022B1AD1FB7AAD
:100CA000012B01D1002300E00823BB747B699B6901
:100CB000BA7C032101FA02F2D2431A407B699A619D
:100CC0007B699B69BA7C012101FA02F21A437B69B4
:100CD0009A6119E0FB7A032B01D1002300E008237D
:100CE000FB747B69DB69FA7C032101FA02F2D243CF
:100CF0001A407B69DA617B69DB69FA7C012101FAC0
:100D000002F21A437B69DA61FB7A013BDBB29B009A
:100D10007B747B691B6A7A7C0132012101FA02F241
:100D2000D2431A407B691A6297F82030012B09D10F
:100D30007B691B6A7A7C0132012101FA02F21A43B3
:100D40007B691A627B691B6A7A7C012101FA02F2D3
:100D50001A437B691A627B691B6843F001027B6955
:100D60001A6002E000BF00E000BF1837BD4680BD3A
:100D70000004004000080040000C004080B487B030
:100D800000AFF8600B467A60FB72FB687B61FB7A10
:100D9000002B02D0FB7A042B01D900233FE0FB7A21
:100DA000FB747B691B69FA7C012101FA02F2134092
:100DB000002B33D0FB7A013B032B23D801A252F83E
:100DC00023F000BFD50D0008E10D0008ED0D00086F
:100DD000F90D00087B695B6B9AB27B681A8011E0A1
:100DE0007B699B6B9AB27B681A800BE07B69DB6B3B
:100DF0009AB27B681A8005E07B691B6C9AB27B68AB
:100E00001A8000BF7B691B69FA7C012101FA02F29A
:100E1000D2431A407B691A61012300E0002318467F
:100E20001C37BD4680BC704780B400AFBFF34F8F06
:100E300000BF064BDB6803F4E0620449044B134334
:100E4000CB60BFF34F8F00BF00BFFDE700ED00E0B8
:100E50000400FA0580B586B002AF0023FB810023B1
:100E6000BB81FFF779FEFFF7FDFCFFF7B3FC002025
:100E7000FFF780FE0120FFF77DFE6E20FFF77AFE70
:100E8000012204210020FFF79DFA01220A210120FE
:100E9000FFF798FA0420FFF713FB0A20FFF710FB77
:100EA0006820FFF767FE4020FFF764FEFFF716FAA1
:100EB000FFF7CCFD01220F212448FFF736FC002369
:100EC00000935423012201214FF08040FFF7A6FE3A
:100ED0001F4B1B78DBB2002BFAD1FFF78BFCFFF71F
:100EE0004DFA0346BB81BB89642203FB02F2194B16
:100EF000A3FB0213D21A52081344DB0AFB81FB89BD
:100F0000DBB21846FFF7F2FD3A1DFB891146184681
:100F1000FFF78AFD00237B8100F048F803467B81C0
:100F20003A467B8911461846FFF77EFD72B600BF30
:100F30003B1D19468C20FFF723FD3B461946C42074
:100F4000FFF71EFD62B600BFC2E700BF000002400F
:100F5000780000200101100080B500AF0D4B012288
:100F60001A70FFF7E9FD00210120FFF7BBFC0A2002
:100F7000FFF742FD00218020FFF7B4FC0648FFF791
:100F8000E5FC0021C020FFF7ADFC0448FFF7DEFCC4
:100F900000BF80BD780000203C1A00084C1A0008F1
:100FA00080B500AFFFF740FF00BF80BD80B582B0C5
:100FB00000AF0023BB803B1D1A4601214FF080404B
:100FC000FFF7DCFE0346002B26D0164B1B78002BC8
:100FD00006D1BA88144B1A80124B01221A701BE0FA
:100FE0000023FB80BA88104B1B889A4205D3BA882D
:100FF0000D4B1B88D31AFB8004E0BA880A4B1B8870
:10100000D31AFB80FB88094A92FBF3F39AB2084B90
:101010001A80044B00221A70054B1B8818460837AB
:10102000BD4680BD790000207A00002040420F00BC
:101030007C00002080B582B000AF786000F064F8DA
:1010400003460C221A604FF0FF3318460837BD469E
:1010500080BD000000200B490B4A0C4B02E01C58DD
:101060000C5004300C189442F9D300200849094A66
:1010700001E0086004319142FBD300F04BF8FFF728
:10108000E9FE00000000002054000020A01A000823
:1010900054000020C8010020FEE700000CB430B569
:1010A000184B0C1E1D689DB008DA8B232B604FF087
:1010B000FF301DB0BDE8304002B070474FF40273FE
:1010C000ADF814304FF000031B9314BF04F1FF334D
:1010D0002346049307934FF6FF7302900690ADF8F2
:1010E0001630209A21AB02A92846019300F090F90E
:1010F000431CBCBF8B232B60002CDAD0029B002248
:101100001A70D6E704000020014B1868704700BF32
:101110000400002070B50D4B0D4D5B1B9C1000268C
:10112000A64209D100F06CFC0A4D0B4B5B1B9C10D6
:101130000026A64205D170BD55F8043B98470136FC
:10114000EEE755F8043B98470136F2E7981A000895
:10115000981A0008981A00089C1A000870477047EF
:1011600038B50546002941D051F8043C0C1F002B2E
:10117000B8BFE41800F0E0F81D4A136833B96360A3
:1011800014602846BDE8384000F0DCB8A34208D916
:10119000206821188B4201BF19685B68091821601B
:1011A000EDE71A465B680BB1A342FAD911685018F3
:1011B000A0420BD120680144501883421160E0D155
:1011C00018685B68536008441060DAE702D90C23A2
:1011D0002B60D6E7206821188B4204BF19685B6832
:1011E000636004BF091821605460CAE738BD00BFBE
:1011F000C401002070B50F4E0C463168054611B988
:1012000000F0AAFB30602146284600F0A5FB431CF5
:1012100003D14FF0FF34204670BDC41C24F00304FA
:10122000A042F8D0211A284600F096FB0130F2D1F6
:10123000EFE700BFC00100202DE9F843CD1C25F0E9
:10124000030508350C2D38BF0C25002D064601DBA3
:10125000A94204D90C2333600020BDE8F883DFF8ED
:10126000D48000F069F8D8F800301C4644BB294609
:101270003046FFF7BFFF431C044658D1D8F8004062
:101280002746002F43D1002C4BD0236839463046E7
:1012900004EB030900F060FB814542D121686D1A1F
:1012A00029463046FFF7A6FF01303AD023682B4489
:1012B0002360D8F800305A6862BBC8F800700FE0AD
:1012C0002268521B20D40B2A17D96119A34225602A
:1012D00018BF5960636808BFC8F8001062514B60BE
:1012E000304600F02FF804F10B00231D20F007001A
:1012F000C21A1CBF1B1AA350AFE76268A3420CBFFF
:10130000C8F800205A60EBE723466468AEE73C4625
:101310007F68B6E71A465B68A342FBD1002353609F
:10132000DEE70C233360304600F00CF894E70560EC
:10133000D6E700BFC40100200148FFF70FBF00BF80
:10134000BC0100200148FFF70ABF00BFBC0100201C
:101350002DE9F0478E681F46BE4282460C469046F5
:10136000334653D8B1F90C0010F4906F2BD0656957
:101370002368096905EB4505A3EB010905EBD57564
:101380007B1C6D104B44AB422A4684BF1D462A4647
:10139000430527D511465046FFF74EFF064658B382
:1013A00021694A4600F0E8FAA38923F4906343F0E8
:1013B0008003A381266165614E44A5EB0905266083
:1013C000A5603E463B461F4620683A46414600F02F
:1013D000A9FAA3689B1BA36023683B4423600020F9
:1013E000BDE8F087504600F0D5FA06460028E1D166
:1013F00021695046FFF7B4FE0C23CAF80030A389D8
:1014000043F04003A3814FF0FF30E9E73E46DBE7BE
:101410002DE9F04F98468B891B069DB007460D4677
:10142000144610D50B6973B94021FFF705FF2860FA
:10143000286130B90C233B604FF0FF301DB0BDE890
:10144000F08F40236B610023099320238DF829300E
:10145000CDF80C803023DFF89C818DF82A304FF0D6
:10146000010923469A4613F8012B0AB1252AF9D11E
:10147000BAEB040B0BD05B46224629463846FFF7F1
:1014800067FF013000F0A780099A5A4409929AF840
:101490000030002B00F09F8000234FF0FF32CDE999
:1014A00005230AF1010A049307938DF853301A9328
:1014B0005446052214F8011B4E48FEF779FE049AA3
:1014C000D8B9D00644BF20238DF85330110744BF4C
:1014D0002B238DF853309AF800302A2B15D0079A19
:1014E000544600204FF00A0C214611F8013B303BD6
:1014F000092B4BD9B0B1079214E0A0EB080309FA0D
:1015000003F313430493A246D2E7039B191D1B6800
:101510000391002BBBBF5B4242F00202079307938B
:10152000B8BF049223782E2B0AD163782A2B32D1AC
:10153000039B1A1D1B68039243EAE373023405936D
:10154000DFF8B4A0217803225046FEF731FE38B10F
:10155000049BA0EB0A004022824013430134049311
:1015600014F8011B25488DF828100622FEF720FEEE
:10157000002836D0224B1BBB039B073323F0070305
:1015800008330393099B334409936AE70CFB023247
:101590000C460120A8E700230134059319464FF0BB
:1015A0000A0C204610F8012B303A092A03D9002BE7
:1015B000C6D00591C4E70CFB012104460123F0E7E6
:1015C00003AB00932A460F4B04A93846AFF30080C3
:1015D000421C0646D6D1AB895B063FF52DAF099874
:1015E0002CE703AB00932A46064B04A9384600F0CB
:1015F00079F8EDE75B1A0008611A0008651A00081F
:1016000000000000511300082DE9F04716469846E7
:101610008A680B69DDF820909342B8BF13463360A7
:1016200091F8432007460C460AB101333360236822
:10163000990642BF336802333360256815F006050A
:1016400006D104F1190AE36832689B1AAB4226DC22
:1016500094F843302268003B18BF012392062BD434
:1016600004F1430241463846C84701301ED0236882
:10167000226903F00603042B02BFE5683368ED1A04
:10168000A3680CBF25EAE57500259342C4BF9B1AE9
:10169000ED1800261A34B5421AD1002008E00123C3
:1016A000524641463846C847013003D14FF0FF301B
:1016B000BDE8F0870135C6E7E1185A1C302081F8F3
:1016C0004300224494F8451082F843100233C7E7E0
:1016D0000123224641463846C8470130E6D001364C
:1016E000D9E700002DE9FF470F7E0C9E782F914629
:1016F00080460C469A4601F1430207D8622F0AD869
:10170000002F00F0D280582F00F0B78004F142067D
:1017100084F842703AE0A7F16303152BF6D801A1D3
:1017200051F823F07D170008911700080D170008E5
:101730000D1700080D1700080D1700089117000875
:101740000D1700080D1700080D1700080D170008E9
:1017500091180008BB170008471800080D1700086B
:101760000D170008B31800080D170008BB17000874
:101770000D1700080D1700084F18000833681A1DD0
:101780001B68326004F1420684F8423001239DE078
:1017900033682068191D3160060601D51D6803E015
:1017A0004506FBD5B3F90050002D03DA2D236D4219
:1017B00084F8433059480A2310E02168336808064A
:1017C00053F8045B02D4490648BFADB26F2F5348AB
:1017D000336059D10823002184F843106668A6605D
:1017E000002E05DB21682E4321F0040121604DD03D
:1017F0001646B5FBF3F103FB1157C75D06F8017DF3
:101800002F46BB420D46F4D9082B0BD12368DF07C6
:1018100008D5236961689942DEBF302306F8013C90
:1018200006F1FF36921B2261CDF800A04B4603AAB9
:1018300021464046FFF7E8FE01304CD14FF0FF3023
:1018400004B0BDE8F087236843F0200323603448E8
:10185000782784F84570236831681F0651F8045BC7
:1018600002D45F0648BFADB23160D90744BF43F030
:10187000200323601DB11023ADE72848E9E7236862
:1018800023F020032360F6E70A23A4E71646BBE70C
:10189000336825686169181D30602E061B6801D504
:1018A000196002E06806FBD5198000232361164603
:1018B000BAE733681A1D32601E686268002130463C
:1018C000FEF776FC08B1801B60606368236100232B
:1018D00084F84330A8E72369324649464046D0475A
:1018E0000130ABD023689B0713D4E068039B984278
:1018F000B8BF1846A4E70123324649464046D047C0
:1019000001309BD00135E36803995B1AAB42F2DCEE
:10191000EBE7002504F11906F5E700BF6C1A000893
:101920007D1A0008884210B501EB020402D98442F6
:10193000234607D8431EA14207D011F8012B03F814
:10194000012FF8E70244824200D110BD13F8011DB7
:1019500002F8011DF7E7000038B5064D00230446E4
:1019600008462B60FFF766FB431C02D12B6803B1CE
:10197000236038BDB80100200A44914200F1FF33D2
:1019800000D1704710B511F8014B03F8014F914297
:10199000F9D110BD2DE9F041074614460D4621B995
:1019A000BDE8F0411146FFF747BC2AB9FFF7D8FB65
:1019B00025462846BDE8F08100F01AF88442064624
:1019C00002D8B4EB500FF4D821463846FFF734FC68
:1019D000804608B94546ECE7B4422246294628BF6E
:1019E0003246FFF7C9FF29463846FFF7B9FBF1E752
:1019F00051F8043C181F002BBCBF0B58C01870478F
:101A0000F8B500BFF8BC08BC9E467047F8B500BFEB
:081A1000F8BC08BC9E467047BB
:101A18004F433A20302020204D533A2030202025B3
:101A28000000000043533A2030000000200000006E
:101A380025750000454D455247454E43592053549E
:101A48004F500000507265737320746F2072657375
:101A5800657400232D302B2000686C4C0065666788
:101A6800454647003031323334353637383941420C
:101A780043444546003031323334353637383961DE
:081A8800626364656600000062
:081A900010E7FF7F01000000D8
:041A9800B902000887
:041A9C0091020008AB
:101AA000010100000800002000000000800000206C
:101AB000E8000020500100200000000000000000AD
:101AC0000000000000000000000000000000000016
:101AD0000000000000000000000000000000000006
:101AE00000000000000000000000000000000000F6
:041AF00000000000F2
:04000005080010558A
:00000001FF
